:0E00000012C0FECFFDCFFCCFFBCFFACFF9CF61
:10000E00F8CFF7CFF6CFF5CFF4CFF3CFF2CFF1CFC6
:10001E00F0CFEFCFEECFEDCFF894EE27ECBBF1E0C3
:10002E00FBBFEBBFE5BF8DE0A2E0BB27ED938A954A
:10003E00E9F780E094E0A0E6ED930197E9F7EFE5AC
:10004E00EDBFE4E0EEBFC0E6D1E000C0EFEFE1BBF4
:10005E00E0E010D0E8E10ED0ECE30CD0EEE70AD0F1
:10006E00EFEF08D0EEE706D0ECE304D0E8E102D0E3
:10007E00EFCFFFCFE2BBA8ECB0E000C0109639F096
:10008E00A8958AEF90E00197F1F71197C9F70895B7
:00000001FF
