:100000001AC0FECFFDCFFCCFFBCFFACFF9CFF8CF90
:10001000F7CFF6CFF5CFF4CFF3CFF2CFF1CFF0CFCC
:10002000EFCFEECFEDCF3F065B4F666D7D077F6F65
:10003000777C395E7971F894EE27ECBBF1E0FBBF79
:10004000EBBFE5BF8DE0A2E0BB27ED938A95E9F712
:1000500080E094E0A0E6ED930197E9F7EFE5EDBFCE
:10006000E4E0EEBFC0E6D1E000C0EFEFE1BBE6E2C6
:10007000F0E0049002BAE0E0E4BBEFEFE5BBE3B3ED
:10008000E1704E2EAAE0B0E019D0442061F454147F
:1000900049F0EFE0E71519F4772409D001C0739413
:1000A00006D0552402C0E1E05E2EE9CFFFCFE72D58
:1000B000F0E0EA5DFF4F049002BA0895109639F01F
:1000C000A8958AEF90E00197F1F71197C9F7089585
:00000001FF
