:1000000012C0FECFFDCFFCCFFBCFFACFF9CFF8CF98
:10001000F7CFF6CFF5CFF4CFF3CFF2CFF1CFF0CFCC
:10002000EFCFEECFEDCFF894EE27ECBBF1E0FBBFC6
:10003000EBBFE5BF8DE0A2E0BB27ED938A95E9F722
:1000400080E094E0A0E6ED930197E9F7EFE5EDBFDE
:10005000E4E0EEBFC0E6D1E000C0EFEFE1BB01E0BD
:1000600010E00138E0E01E0724F412D0000F111F49
:10007000F8CF00E410E00230E0E01E073CF008D0CA
:10008000D801E2E0F0E029D08F01F5CFE8CFFFCF33
:1000900002BBA4E6B0E000C0109639F0A89580ED50
:1000A00097E00197F1F71197C9F70895F195E19558
:1000B000F04008950024112490E1AA0FBB1F001CFA
:1000C000111C0E1A1F0A18F40E0E1F1E01C0A1608B
:1000D0009A9599F7FD01D001089504D0EBDF0EF455
:1000E000E5DF0895E894F7FF02C0E0DF6894B7FF0A
:1000F00006C0A095B095119600F8039400FA0895F3
:00000001FF
