:0600000076C0FECFFDCF2B
:10000600FCCFFBCFFACFF9CFF8CFF7CFF6CFF5CFAE
:10001600F4CFF3CFF2CFF1CFF0CFEFCFEECFEDCFDE
:100026001027E80364000A00010000100001100018
:1000360001003131313131000000000000000000C4
:10004600000000000000000000002D2D2D2D2D4C7D
:100056004F434B45442D2D2D2D2D002D2D2D2D554A
:100066004E4C4F434B45442D2D2D2D002D2D2D2D22
:100076002D57524F4E472D2D2D2D2D2D002D2D63F5
:10008600757272656E7420706173732D2D002D2D3F
:100096002D2D4E657720506173732D2D2D2D002D3E
:1000A600456E7465722035204469676974732D0046
:1000B6005245656E746572206E6577207061737344
:1000C600002D2D50617373206368616E6765642D22
:1000D6002D0080C00500710138001100600150003C
:1000E60002007701D8000000F894EE27ECBBF1E09F
:1000F600FBBFEBBFE5BF8DE0A2E0BB27ED938A9582
:10010600E9F780E094E0A0E6ED930197E9F7EAEDE0
:10011600F0E085919591009761F0A591B5910590D4
:100126001590BF01F00105900D920197E1F7FB01D3
:10013600F0CFEFE5EDBFE4E0EEBFC0E6D1E000C0F2
:100146002697E0E0E883E983EA83EB83EC83ED839B
:1001560010E001E0A0E1CBD186D1E0EFE1BBEFEF0B
:10016600E2BBE3E0E4BBE2E0E5BB31D114D2A0E6BA
:10017600B1E09CD139D03E2F3031E1F33A3029F449
:100186000ED2F1F70FD212D22DC03B3021F507D295
:10019600F1F711D216D206D217D2C1F400E0E1E08F
:1001A600E5BB17D2A1E6B0E090D11ED03E2F30318C
:1001B600E1F33A3021F45ED0E2E0E5BB06C03B3025
:1001C60019F4E2E0E5BB01C0F0CF02C002D203D2CF
:1001D600E9D1ECD107C0E3D1F1F7153018F4EBD132
:1001E600E32FFFD1C3CFFFCF84D210E1979803D27C
:1001F60059F006D211F41BE007C008D211F410E042
:1002060003C008D209F41AE0979A9698F4D159F0E7
:10021600F7D111F419E007C0F9D111F418E003C0C1
:10022600F9D109F417E0969A9598E5D159F0E8D1F5
:1002360011F416E007C0EAD111F415E003C0EAD1C3
:1002460009F414E0959A9498D6D159F0D9D111F4BD
:1002560013E007C0DBD111F412E003C0DBD109F4CF
:1002660011E0949A103111F0A8ECD8D1EFEFE2BB6F
:10027600E12FCFC0629782E1D3D1EEE3F0E041D225
:1002860036D210E000E030E0EED085D1A3E8B0E051
:100296001CD1C9D1F1F32A3029F481D1F1F7C7D1A4
:1002A60085D115C02B3061F47AD1F1F7C5D189D14A
:1002B600BED18AD169F08DD18ED1B9D177D107C09F
:1002C6006ED1F1F7153018F4B7D1E22F8AD1DDCF10
:1002D600CAD061D1A4E9B0E0F8D0A5D1F1F32A30B3
:1002E60039F45DD1F1F7FE013A96ADD15FD11DC06B
:1002F6002B3079F454D1F1F7E12FA8D162D1053032
:10030600A9F067D1A5EAB0E0E0D0A8EEB3E0C8D185
:100316000CC045D1F1F7053040F4E02F97D1E22F1C
:10032600E05DEC930F5FE02F97D1D3CF9CD033D114
:10033600A6EBB0E0CAD077D1F1F32A3029F42FD159
:10034600F1F791D193D13FC02B3091F528D1F1F738
:1003560092D137D188D1DE011C96F2D0E03019F562
:10036600E1E7F1E070D1DE011C96FDD0E09171016C
:1003760057D1ACD1E0917201A1E0B0E0A7D1E091F4
:100386007301A2E0B0E0A2D1E0917401A3E0B0E075
:100396009DD1E0917501A4E0B0E098D11AD1A7EC07
:1003A600B0E093D011C015D116D15DD15FD10BC08D
:1003B600F6D0F1F7353038F45ED1E22FE05DEC93FC
:1003C6003F5FE32F49D1B3CF97D16696089591D178
:1003D60011E026D16FD10E2F0F3F09F010E010303B
:1003E600C1F41ED167D1E0937101A1E0B0E062D102
:1003F600E0937201A2E0B0E05DD1E0937301A3E067
:10040600B0E058D1E0937401A4E0B0E053D1E0939A
:100416007501099119910895AA93E8B3EF70AE2F6B
:10042600E881E07FEA2BE8BB2DD1C29A2BD1C29896
:1004360029D184C0AA93A881EFDFE881E295E883F9
:10044600A881EADF85E88A95F1F778C0AA93E88162
:10045600F0E0E958FE4FE081A981AE0FEBDF59804D
:10046600488022960895A2E0E5DFA3E0D7D0ACE06D
:10047600E1DFA1E0DFDFA3E0D1D0E0E04E2E5E2E8B
:100486000895AA93A881AA3011F0571448F0E0E025
:10049600EA934394A42DDADFA881AA3009F44EC06A
:1004A6005394C09AA881C6DFC09848C0BA93AA934D
:1004B6001A93A981BA81ED91A983BA831E2FE030E0
:1004C60019F0A12FDEDFF5CF0FC0E0D01A93E98136
:1004D600FA813196E983FA833197E4911E2FE03051
:1004E60019F0A12FCEDFF3CF188123960895AA9392
:1004F600E7B3E06FE7BBBA9AB89AB99AC298C098C0
:10050600C1987880E881E058E0937901E881E05469
:10051600E0937A01A4E182D0BCD0BBD0BAD0A0E2ED
:100526007BDF88EC90E00197F1F7A8E283DFA4E097
:1005360081DFA5E87FDFA6E07DDF95DF21960895C0
:10054600A5D0E991F991A991B9916D91719167172A
:1005560021F46623D1F7EE270895671BE1F3E1E066
:1005660008F4E250089592D0E991F991A991B991D0
:10057600CD0161916D936623E1F7FC01089586D064
:10058600E991F991A991B991CD0105900D920020BB
:10059600E1F7FC010895E0E0EA93A0E057CF24DEFE
:1005A600E0310895FE01FA93EA930895A0E6B0E0DB
:1005B600E6DF10E00895E12FF0E0DE01AE0FBF1F89
:1005C6000895E0E0EC930895A1E7B1E0B9DFE030EB
:1005D600089549DFE0CFA2E7B0E077DFA0EDB7E00E
:1005E6005FC0E05DEC931F5FE12FEC5FEA93A1E053
:1005F6002DDFAAE246CFE0B3E7700E2F073008954D
:10060600E02FF0E0E630A0E0FA070895E530A0E03C
:10061600FA070895E330A0E0FA070895B0E040C075
:10062600A0E0B0E00895E0DD2E2F20310895FE0110
:100636007096FA93EA930895E12FF0E0DE01509662
:10064600AE0FBF1F0895FA93EA930895F0E0DE0116
:100656001A96AE0FBF1F0895EC5FEA93A1E0F6DE8F
:10066600A22FA05D0ECFFE013496EDCFA0E6B0E03E
:1006760086DF30E00895E32FF0E0DE011496AE0F3A
:10068600BF1F08958DE08A95F1F70895BA93AA934E
:100696000895A0E3C1DE88EC90E00197F1F7089594
:1006A600109639F0A89580ED97E00197F1F711972C
:1006B600C9F70895E199FECFFF93FFB7F894AEBB53
:1006C600BFBBE09AEDB3FFBFFF910895E19B02C067
:1006D600A895FCCF9FB7F894AEBBBFBBE09A8DB38D
:1006E600E81719F0EDBBE29AE19A9FBF08953A9395
:1006F6002A931A930A9308953B812A8119810881C6
:100706000895AC0FBD1F05900D928A95E1F70895E7
:00000001FF
