:040000000C942A0032
:100004000C9400000C9400000C9400000C9400006C
:100014000C9400000C9400000C9400000C9400005C
:100024000C9400000C9400000C9400000C9400004C
:100034000C9400000C9400000C9400000C9400003C
:100044000C9400000C9400000C9400000C9400002C
:10005400F894EE27ECBBF1E0FBBFEBBFE5BF8DE00E
:10006400A2E0BB27ED938A95E9F780E094E0A0E64F
:10007400ED930197E9F7EFE5EDBFE4E0EEBFC0E6ED
:10008400D1E00C944500EFEFE1BB2297E1E0E88377
:10009400E0E0E983E2BB2DD0E1E0F0E02F01E8E00D
:1000A400F0E0E415F5057CF0E881EE0FE150E2BBE9
:1000B400E881F981EE0FFF1FE883F9831AD0F2017A
:1000C40031962F01ECCFE1E0F0E02F01E7E0F0E022
:1000D400E415F5055CF011D0E150E2BB0ED0E883E5
:1000E400F98307D0F20131962F01F0CF2296CDCFBC
:1000F400FFCFA4E6B0E00C948600A881B981E2E0C9
:10010400F0E00E94A7000895109639F0A89580EDBC
:1001140097E00197F1F71197C9F70895F195E195E3
:10012400F04008950024112490E1AA0FBB1F001C85
:10013400111C0E1A1F0A18F40E0E1F1E01C0A16016
:100144009A9599F7FD01D001089504D0EBDF0EF4E0
:10015400E5DF0895E894F7FF02C0E0DF6894B7FF95
:1001640006C0A095B095119600F8039400FA08957E
:00000001FF
