:0E00000012C02BC0FDCFFCCFFBCFFACFF9CF43
:10000E00F8CFF7CFF6CFF5CFF4CFF3CFF2CFF1CFC6
:10001E00F0CFEFCFEECFEDCFF894EE27ECBBF1E0C3
:10002E00FBBFEBBFE5BF8DE0A2E0BB27ED938A954A
:10003E00E9F780E094E0A0E6ED930197E9F7EFE5AC
:10004E00EDBFE4E0EEBFC0E6D1E022C00A921A9204
:10005E00FA926A937A938A939A93AA93BA93EA93AB
:10006E00FA93EFB7EA93E1E0E8BBA8EEB3E026D04F
:10007E00E0E0E8BBE991EFBFF991E991B991A9915F
:10008E009991899179916991F990199009901895A2
:10009E00EFEFE7BBE0E0E8BBE1BBEFEFE2BBE0E494
:1000AE00EBBFE2E0E5BF7894E2E004D0E0E002D0FE
:1000BE00FBCFFFCFE8BBA8E8B3E100C0109639F044
:1000CE00A89580ED97E00197F1F71197C9F708957C
:00000001FF
