:100000002AC0FECFFDCFFCCFFBCFFACFF9CFF8CF80
:10001000F7CFF6CFF5CFF4CFF3CFF2CFF1CFF0CFCC
:10002000EFCFEECFEDCF1027E80364000A00010008
:1000300000100001100001004E756D6265723D25D3
:1000400064004E756D6265723D30000080C0020034
:1000500060014C000000F894EE27ECBBF1E0FBBF20
:10006000EBBFE5BF8DE0A2E0BB27ED938A95E9F7F2
:1000700080E094E0A0E6ED930197E9F7EEE4F0E08C
:1000800085919591009761F0A591B5910590159096
:10009000BF01F00105900D920197E1F7FB01F0CF50
:1000A000EFE5EDBFE4E0EEBFC0E6D1E000C02A9787
:1000B000E0E0E1BBEFEFE2BBA0E1FDD1B9D1E0B3FD
:1000C000E0951E2F1030A9F0B3D1E0E0EA93A0E054
:1000D000A2D1FE0130D2E8E3F0E02DD2E12FFF27DC
:1000E000662777278AD284E052D12896DE01C3D1D1
:1000F00004C09ED1A2E4B0E0CCD1A4E61FD2DFCFF1
:10010000FFCF1ED283D21FD212966FD23097F1F05A
:100110001AD21CD28F01309761F00230E0E01E0746
:1001200070F0F80131978F01AA81BB811496ED938D
:10013000FC9309D212960DD23197AC81A08303D2E1
:1001400054D2FF2312F0FFD104D205C0FCD1EFEF4F
:10015000FFEFED93FC9361D225960895F1D1269798
:1001600051D210E0AC85BD85E0E0F0E0ED93FC936A
:10017000EA89FB893196EA8BFB8B3197E4912E2F2C
:10018000E03009F4FEC0E12FE03031F4253211F403
:1001900011E001C0E4D1F4C0E130A1F4253211F442
:1001A000DED1EDC012E040E000E02D3211F401E0BC
:1001B000E7C02B3211F44BE2E3C0203211F440E2ED
:1001C000DFC002C0E23039F450E013E0203311F414
:1001D0000068D6C003C0E33009F0D2C0203310F06D
:1001E0002A3308F007C0AAE05A9F502DE22FE053AF
:1001F0005E0FC6C0E22FE33639F4B8D1BAD1B6D11A
:10020000A481AA93BAD1BBC0E33731F4BCD1BDD12C
:10021000BFD17AD11E2F08C0E03751F4B4D1B5D187
:10022000B7D17DD11E2F086002600F7730E02EC05D
:10023000E43611F0E93611F4046002C0E53729F420
:10024000E6E2F0E0AAD115E00BC0E83511F4086051
:1002500003C0E83709F093C0E0E3F0E09ED114E07A
:1002600002FF11C090D191D19BD1AB85AA232AF472
:10027000EA85FB85B6D194D14DE2403011F01F5F85
:1002800001C00B7F03C07FD180D18AD100FD10C097
:10029000151770F407FF08C002FF04C00B7F242F5E
:1002A000115001C020E301C020E259D15150F0CFDC
:1002B000312F01FF15C0303091F003FF05C0EE81F2
:1002C000FF8125916AD105C0AE81BF812D91AE839A
:1002D000BF8345D1503009F051503150ECCF46C06A
:1002E00020E3EE81FF8185D1E887F987EE81FF81E8
:1002F000329653D1E885F985AA85BB85AE17BF072D
:1003000048F02F5FA885B985EA85FB85EA1BFB0BC2
:1003100047D1F0CF2A3328F003FF02C0295F01C084
:10032000295D04FD19C0213320F4A885B9851197F2
:1003300009F409C0531710F000FF01C011C020E2FA
:1003400007FF0AC020E3006102FF06C00B7F4A934B
:1003500014D1503009F0515002D1503009F05150B1
:100360003150A885B985129708F0BACF00FF07C0B1
:10037000503029F05150E0E2EA93FFD0F9CF10E07D
:10038000F7CEAC85BD8531D144D164960895FF92F6
:10039000F82E269739D107D1309719F4EFEFFFEFF8
:1003A0001CC0DE01169619D18D01FDD0F6D0E0E01B
:1003B000E887E987DE011A9610D117D1BCD01A93CD
:1003C0000A93E1E8F0E0B7D0DE011A96C7DE9F019C
:1003D000AE81BF81E0E0EC93F9011DD12A96FF9038
:1003E0000895AA93E8B3EF70AE2FE881E07FEA2B7F
:1003F000E8BBDED0C29ADCD0C298DAD083C0AA9320
:10040000A881EFDFE881E295E883A881EADF85E84B
:100410008A95F1F777C0AA93E881F0E0E05AFE4FA1
:10042000E081A981AE0FEBDF5980488022960895C4
:10043000A2E0E5DFA3E082D0ACE0E1DFA1E0DFDF16
:10044000A3E07CD0E0E04E2E5E2E0895AA93A88112
:10045000AA3011F0571448F0E0E0EA934394A42D39
:10046000DADFA881AA3009F44DC05394C09AA8815C
:10047000C6DFC09847C064D01A93A981BA81ED91B4
:10048000A983BA831E2FE03019F0A12FDFDFF5CF4B
:100490000FC056D01A93E981FA813196E983FA8325
:1004A0003197E4911E2FE03019F0A12FCFDFF3CF69
:1004B000188123960895AA93E7B3E06FE7BBBA9A31
:1004C000B89AB99AC298C098C1987880E881E058E3
:1004D000E0936201E881E054E0936301A4E12ED04F
:1004E0006BD06AD069D0A0E27CDF88EC90E0019705
:1004F000F1F7A8E284DFA4E082DFA5E880DFA6E0D0
:100500007EDF96DF219608951BD0A991B991EE2741
:10051000FF276D91662311F03196FBCF089510D01F
:10052000AA27BB27E991F9910590002011F01196B7
:10053000FBCFFD010895FA93EA930895B0E043C01C
:10054000BA93AA930895AA81BB81089514964DD0B9
:100550000895ED91FD913196FE93EE9308952A93BF
:10056000AD85BE85EF85F88909950895E889F989F3
:1005700008953497E88BF98B0895AD85BE85EF8596
:10058000F88909950895F2DFF4CFA889B989DECFFB
:10059000EE83FF83AE81BF810895EE83FF830895CC
:1005A000EA87FB870895DE011C9617D01ED00895B8
:1005B0008DE08A95F1F70895A0E313DF88EC90E0D1
:1005C0000197F1F70895109639F0A89580ED97E01E
:1005D0000197F1F71197C9F708950024AF0DB01DE9
:1005E0000895F195E195F0400895ED91FC911197F2
:1005F00008950590F491E02D08957A936A93FA9303
:10060000EA9308955A934A933A932A931A930A9332
:1006100008955D814C813B812A811981088108956B
:00000001FF
