:0600000012C0FECFFDCF8F
:10000600FCCFFBCFFACFF9CFF8CFF7CFF6CFF5CFAE
:10001600F4CFF3CFF2CFF1CFF0CFEFCFEECFEDCFDE
:10002600F894EE27ECBBF1E0FBBFEBBFE5BF8DE03C
:10003600A2E0BB27ED938A95E9F780E094E0A0E67D
:10004600ED930197E9F7EFE5EDBFE4E0EEBFC0E61B
:10005600D1E000C0EFEFE1BBE0E0E2BBEFEFE7BBD2
:10006600E0E0E8BB09D0E2BBA0E0B0E0E0E817D0F2
:1000760003D0E8BBFFCFFFCF1A93A0E0B0E003D0D8
:100086001E2F19910895E199FECFFF93FFB7F894BB
:10009600AEBBBFBBE09AEDB3FFBFFF910895E19BF6
:1000A60002C0A895FCCF9FB7F894AEBBBFBBE09A41
:1000B6008DB3E81719F0EDBBE29AE19A9FBF089558
:00000001FF
