:0C0000002CC057C05BC0FCCFFBCFFACF78
:10000C00F9CFF8CFF7CFF6CFF5CFF4CFF3CFF2CFC0
:10001C00F1CFF0CFEFCFEECFEDCF1027E803640098
:10002C000A000100001000011000010025303264AC
:10003C00203A2025303264203A2025303264202E9C
:10004C002025640080C00200700150000000F8946C
:10005C00EE27ECBBF1E0FBBFEBBFE5BF8DE0A2E010
:10006C00BB27ED938A95E9F780E094E0A0E6ED9349
:10007C000197E9F7E2E5F0E085919591009761F041
:10008C00A591B59105901590BF01F00105900D92C9
:10009C000197E1F7FB01F0CFEFE5EDBFE4E0EEBF38
:1000AC00C0E6D1E01FC076D2ED2DFFD2DE2E0AC005
:1000BC0071D2E1E0ED1531F4E0E0F0E04F013F01E9
:1000CC002F0176D2A8EC9AD2E991EFBFF991E99180
:1000DC00B991A9919991899179916991F990199016
:1000EC0009901895E0E0E1BBEFEFE2BBE0ECEBBF71
:1000FC00EAE0E5BF7894A0E19AD060D0E1E0ED159C
:10010C00E9F3ED1579F1A4E679D2E4E8F3E0E4152E
:10011C00F50521F544245524EBE3F0E0E615F7054D
:10012C00C9F466247724ECE3F0E0E815F90571F4E2
:10013C0088249924E3E6F0E0EA15FB0519F4AA24D7
:10014C00BB2403C0F50131965F0103C0F401319665
:10015C004F0103C0F30131963F0104C0F201EC5989
:10016C00FF4F2F0125D2CACFFFCFAA93E8B3EF7070
:10017C00AE2FE881E07FEA2BE8BB42D2C29A40D294
:10018C00C2983ED27CC0AA93A881EFDFE881E295A9
:10019C00E883A881EADF85E88A95F1F770C0AA9315
:1001AC00E881F0E0E059FE4FE081A981AE0FEBDF72
:1001BC00C980E881E093740122960895A2E0E3DF00
:1001CC00A3E01CD2ACE0DFDFA1E0DDDFA3E016D2C0
:1001DC00E0E0E0937401CE2E0895AA93A881AA3092
:1001EC0021F0E0917501CE1660F0E0E0EA93A09169
:1001FC007401AF5FA0937401D2DFA881AA3009F417
:10020C003EC0C394C09AA881BEDFC09838C0FCD150
:10021C001A93A981BA81ED91A983BA831E2FE0307C
:10022C0019F0A12FDADFF5CF188123960895AA9340
:10023C00E7B3E06FE7BBBA9AB89AB99AC298C0987C
:10024C00C198E881E0937501E058E0937201E88170
:10025C00E054E0937301A4E1D1D1D9D1D8D1D7D155
:10026C00A0E283DF88EC90E00197F1F7A8E28BDF46
:10027C00A4E089DFA5E887DFA6E085DF9FDF219674
:10028C000895C2D13BD2CAD1129627D23097F1F041
:10029C00C5D1C7D18F01309761F00230E0E01E0765
:1002AC0070F0F80131978F01AA81BB811496ED9300
:1002BC00FC93B4D11296B8D13197AC81A083AED156
:1002CC000CD2FF2312F0AAD1AFD105C0A7D1EFEF0A
:1002DC00FFEFED93FC9319D22596089595D12697AF
:1002EC0009D210E0AC85BD85E0E0F0E0ED93FC9325
:1002FC00EA89FB893196EA8BFB8B3197E4912E2F9F
:10030C00E03009F4FEC0E12FE03031F4253211F475
:10031C0011E001C08FD1F4C0E130A1F4253211F409
:10032C0089D1EDC012E040E000E02D3211F401E083
:10033C00E7C02B3211F44BE2E3C0203211F440E25F
:10034C00DFC002C0E23039F450E013E0203311F486
:10035C000068D6C003C0E33009F0D2C0203310F0DF
:10036C002A3308F007C0AAE05A9F502DE22FE05321
:10037C005E0FC6C0E22FE33639F463D165D161D18B
:10038C00A481AA9365D1BBC0E33731F467D168D19E
:10039C006AD1E9D01E2F08C0E03751F45FD160D18B
:1003AC0062D1ECD01E2F086002600F7730E02EC0B7
:1003BC00E43611F0E93611F4046002C0E53729F493
:1003CC00E6E2F0E055D115E00BC0E83511F4086019
:1003DC0003C0E83709F093C0E0E3F0E049D114E042
:1003EC0002FF11C03BD13CD146D1AB85AA232AF4E4
:1003FC00EA85FB8556D13FD14DE2403011F01F5FAD
:10040C0001C00B7F03C02AD12BD135D100FD10C008
:10041C00151770F407FF08C002FF04C00B7F242FD0
:10042C00115001C020E301C020E204D15150F0CFA3
:10043C00312F01FF15C0303091F003FF05C0EE8164
:10044C00FF81259115D105C0AE81BF812D91AE8361
:10045C00BF83F0D0503009F051503150ECCF46C032
:10046C0020E3EE81FF813DD1E887F987EE81FF81A2
:10047C003296FED0E885F985AA85BB85AE17BF07F5
:10048C0048F02F5FA885B985EA85FB85EA1BFB0B35
:10049C00F2D0F0CF2A3328F003FF02C0295F01C04D
:1004AC00295D04FD19C0213320F4A885B985119765
:1004BC0009F409C0531710F000FF01C011C020E26D
:1004CC0007FF0AC020E3006102FF06C00B7F4A93BE
:1004DC00BFD0503009F05150ADD0503009F05150D0
:1004EC003150A885B985129708F0BACF00FF07C024
:1004FC00503029F05150E0E2EA93AAD0F9CF10E045
:10050C00F7CEAC85BD85E9D0FCD064960895FF92FA
:10051C00F82E2697F1D0B2D0309719F4EFEFFFEF09
:10052C001EC0DE011696B9D08D01A8D0A1D0E0E096
:10053C00E887E987DE011A96B0D0CFD0FA93EA9318
:10054C001A930A93E7E4F1E0FA93EA93DE011A9620
:10055C00C5DE9F01AE81BF81E0E0EC93F901D3D001
:10056C002A96FF90089550D0A991B991EE27FF27B4
:10057C006D91662311F03196FBCF089545D0AA27D3
:10058C00BB27E991F9910590002011F01196FBCF52
:10059C00FD0108950A921A92FA926A937A938A93B9
:1005AC009A93AA93BA93EA93FA93EFB7EA930895BE
:1005BC00E0E6F1E0FA93EA93E8E3F0E0FA93EA93E9
:1005CC00F5016627772791D0F401662777278DD020
:1005DC00F3016627772789D0D201E4E6F0E06AD0F0
:1005EC006627772782D080E192DF6496E7DDE0E032
:1005FC00EA93A0E0D4DDA0E6B1E009CEB0E043C0C0
:10060C008DE08A95F1F70895BA93AA930895A0E323
:10061C00ACDD88EC90E00197F1F70895AA81BB81DD
:10062C00089514965AD00895ED91FD913196FE934C
:10063C00EE9308952A93AD85BE85EF85F8890995CB
:10064C000895E889F98908953497E88BF98B089512
:10065C00AD85BE85EF85F88909950895F2DFF4CF55
:10066C00A889B989DECFEE83FF83AE81BF8108955F
:10067C00EE83FF830895EA87FB870895DE011C96BD
:10068C000CD02BD00895109639F0A89580ED97E0FA
:10069C000197F1F71197C9F708950024AF0DB01D1C
:1006AC000895F195E195F0400895EE23E1E009F00D
:1006BC00EE2708950024112490E1AA0FBB1F001C03
:1006CC00111C0E1A1F0A18F40E0E1F1E01C0A16079
:1006DC009A9599F7FD01D0010895ED91FC91119730
:1006EC0008950590F491E02D08957A936A93FA9306
:1006FC00EA9308955A934A933A932A931A930A9336
:10070C0008955D814C813B812A811981088108956E
:00000001FF
