:0A0000001AC0FECFFDCFFCCFFBCFEE
:10000A00FACFF9CFF8CFF7CFF6CFF5CFF4CFF3CFBA
:10001A00F2CFF1CFF0CFEFCFEECFEDCF3F065B4F70
:10002A00666D7D077F6F777C395E7971F894EE276C
:10003A00ECBBF1E0FBBFEBBFE5BF8DE0A2E0BB2765
:10004A00ED938A95E9F780E094E0A0E6ED930197B5
:10005A00E9F7EFE5EDBFE4E0EEBFC0E6D1E000C0AE
:10006A00609780E1A0E0B0E0E6E2F0E052D010E074
:10007A0000E0EFEFE7BBE881E8BBEFEFE1BBE88127
:10008A00E2BBA098A89AA198A99A989911C025D0DC
:10009A00193049F4093021F4E0E00E2F1E2F02C076
:1000AA0010E00F5F01C01F5F989BFECF16D018D0DB
:1000BA00999911C012D0103049F4003021F4E9E0C6
:1000CA000E2F1E2F02C019E0015001C01150999B3A
:1000DA00FECF03D005D0D9CFFFCFACE2B1E00FC03D
:1000EA00E12FF0E0DE01AE0FBF1FEC91E2BBE02F83
:1000FA00F0E0DE01AE0FBF1FEC91E8BB0895109649
:10010A0039F0A89580ED97E00197F1F71197C9F7B3
:10011A000895AC0FBD1F05900D928A95E1F70895D9
:00000001FF
