:0400000022C0FECF4D
:10000400FDCFFCCFFBCFFACFF9CFF8CFF7CFF6CFA8
:10001400F5CFF4CFF3CFF2CFF1CFF0CFEFCFEECFD8
:10002400EDCF1027E80364000A000100001000016E
:10003400100001002564000080C0020060013C0043
:100044000000F894EE27ECBBF1E0FBBFEBBFE5BF8B
:100054008DE0A2E0BB27ED938A95E9F780E094E078
:10006400A0E6ED930197E9F7EEE3F0E08591959131
:10007400009761F0A591B59105901590BF01F0012D
:1000840005900D920197E1F7FB01F0CFEFE5EDBF8D
:10009400E4E0EEBFC0E6D1E000C02A97E0EFE1BBA8
:1000A400EFE0E2BBA0E12CD2F9D119D01E2F103120
:1000B400E1F3F4D1E0E0EA93A0E0E3D1FE0160D201
:1000C400E8E3F0E05DD2E12FFF2766277727CDD262
:1000D40084E093D12896DE0103D2E7CFFFCFCED2BE
:1000E40010E1979850D259F053D211F41AE007C096
:1000F40055D211F410E003C055D209F41BE0979ACD
:10010400969841D259F044D211F419E007C046D26E
:1001140011F418E003C046D209F417E0969A9598B2
:1001240032D259F035D211F416E007C037D211F4A7
:1001340015E003C037D209F414E0959A949823D2B9
:1001440059F026D211F413E007C028D211F412E0BA
:1001540003C028D209F411E0949A103111F0A8ECEC
:1001640025D2E7E0E2BBE12F09911991089520D24D
:1001740085D221D2129671D23097F1F01CD21ED2C0
:100184008F01309761F00230E0E01E0770F0F80153
:1001940031978F01AA81BB811496ED93FC930BD206
:1001A40012960FD23197AC81A08305D256D2FF2389
:1001B40012F001D206D205C0FED1EFEFFFEFED93AE
:1001C400FC9363D225960895F3D1269753D210E079
:1001D400AC85BD85E0E0F0E0ED93FC93EA89FB8912
:1001E4003196EA8BFB8B3197E4912E2FE03009F4A2
:1001F400FEC0E12FE03031F4253211F411E001C0EA
:10020400E6D1F4C0E130A1F4253211F4E0D1EDC01F
:1002140012E040E000E02D3211F401E0E7C02B329F
:1002240011F44BE2E3C0203211F440E2DFC002C01B
:10023400E23039F450E013E0203311F40068D6C002
:1002440003C0E33009F0D2C0203310F02A3308F0A1
:1002540007C0AAE05A9F502DE22FE0535E0FC6C09C
:10026400E22FE33639F4BAD1BCD1B8D1A481AA9330
:10027400BCD1BBC0E33731F4BED1BFD1C1D169D148
:100284001E2F08C0E03751F4B6D1B7D1B9D16CD123
:100294001E2F086002600F7730E02EC0E43611F0A4
:1002A400E93611F4046002C0E53729F4E6E2F0E02F
:1002B400ACD115E00BC0E83511F4086003C0E83791
:1002C40009F093C0E0E3F0E0A0D114E002FF11C014
:1002D40092D193D19DD1AB85AA232AF4EA85FB85DB
:1002E400B8D196D14DE2403011F01F5F01C00B7FB1
:1002F40003C081D182D18CD100FD10C0151770F4D8
:1003040007FF08C002FF04C00B7F242F115001C057
:1003140020E301C020E25BD15150F0CF312F01FF27
:1003240015C0303091F003FF05C0EE81FF812591A7
:100334006CD105C0AE81BF812D91AE83BF8347D1FF
:10034400503009F051503150ECCF46C020E3EE81DB
:10035400FF8187D1E887F987EE81FF81329655D1F5
:10036400E885F985AA85BB85AE17BF0748F02F5FDE
:10037400A885B985EA85FB85EA1BFB0B49D1F0CF3B
:100384002A3328F003FF02C0295F01C0295D04FD60
:1003940019C0213320F4A885B985119709F409C03F
:1003A400531710F000FF01C011C020E207FF0AC07C
:1003B40020E3006102FF06C00B7F4A9316D1503040
:1003C40009F0515004D1503009F051503150A885F2
:1003D400B985129708F0BACF00FF07C0503029F052
:1003E4005150E0E2EA9301D1F9CF10E0F7CEAC85A9
:1003F400BD8533D146D164960895FF92F82E269791
:100404003BD109D1309719F4EFEFFFEF1CC0DE01A7
:1004140016961BD18D01FFD0F8D0E0E0E887E9877C
:10042400DE011A9612D119D1ABD01A930A93E9EBD3
:10043400F0E0A6D0DE011A96C7DE9F01AE81BF812F
:10044400E0E0EC93F9011FD12A96FF900895AA9356
:10045400E8B3EF70AE2FE881E07FEA2BE8BBE0D091
:10046400C29ADED0C298DCD072C0AA93A881EFDF12
:10047400E881E295E883A881EADF85E88A95F1F7C7
:1004840066C0AA93E881F0E0E05AFE4FE081A981BA
:10049400AE0FEBDF5980488022960895A2E0E5DF95
:1004A400A3E084D0ACE0E1DFA1E0DFDFA3E07ED015
:1004B400E0E04E2E5E2E0895AA93A881AA3011F092
:1004C400571440F0E0E0EA934394A42DDADFA881C6
:1004D400AA30E9F15394C09AA881C7DFC09837C005
:1004E40067D01A93A981BA81ED91A983BA831E2F8B
:1004F400E03019F0A12FE0DFF5CF1881239608959D
:10050400AA93E7B3E06FE7BBBA9AB89AB99AC298CC
:10051400C098C1987880E881E058E0936201E8814E
:10052400E054E0936301A4E141D07ED07DD07CD03F
:10053400A0E28DDF88EC90E00197F1F7A8E295DF67
:10054400A4E093DFA5E891DFA6E08FDFA7DF219683
:1005540008952ED0A991B991EE27FF276D916623B6
:1005640011F03196FBCF089523D0AA27BB27E99138
:10057400F9910590002011F01196FBCFFD0108952B
:10058400FA93EA930895E0B3E7700E2F07300895C5
:10059400E02FF0E0E630A0E0FA070895E530A0E0AF
:1005A400FA070895E330A0E0FA070895B0E043C0E5
:1005B400BA93AA930895AA81BB81089514964DD045
:1005C4000895ED91FD913196FE93EE9308952A934B
:1005D400AD85BE85EF85F88909950895E889F9897F
:1005E40008953497E88BF98B0895AD85BE85EF8522
:1005F400F88909950895F2DFF4CFA889B989DECF87
:10060400EE83FF83AE81BF810895EE83FF83089557
:10061400EA87FB870895DE011C9617D01ED0089543
:100624008DE08A95F1F70895A0E311DF88EC90E05E
:100634000197F1F70895109639F0A89580ED97E0A9
:100644000197F1F71197C9F708950024AF0DB01D74
:100654000895F195E195F0400895ED91FC9111977D
:1006640008950590F491E02D08957A936A93FA938E
:10067400EA9308955A934A933A932A931A930A93BE
:1006840008955D814C813B812A81198108810895F7
:00000001FF
