:0E00000023C0FECFFDCFFCCFFBCFFACFF9CF50
:10000E00F8CFF7CFF6CFF5CFF4CFF3CFF2CFF1CFC6
:10001E00F0CFEFCFEECFEDCF1027E80364000A004C
:10002E0001000010000110000100EEEDEBE7DEDD37
:10003E00DBD7BEBDBBB77E7D7B77F894EE27ECBBDE
:10004E00F1E0FBBFEBBFE5BF8DE0A2E0BB27ED9378
:10005E008A95E9F780E094E0A0E6ED930197E9F741
:10006E00EFE5EDBFE4E0EEBFC0E6D1E000C0609783
:10007E0080E1A0E0B0E0E8E3F0E03BD0EFEFE7BBDB
:10008E00E8BBEFE0E4BBE0EF25D013B3E0EFE4BB59
:10009E00EFE020D0E3B31E2BA2E3B0E020D01F3F51
:1000AE0099F000E0003150F4E02FF0E0DE01AE0FE9
:1000BE00BF1FAC911A1711F00F5FF4CF003111F47E
:1000CE0000E001C00F5F01C000E0E02FE095E8BB4B
:1000DE00D8CFFFCFE5BB8DE08A95F1F70895109646
:1000EE0039F0A89580ED97E00197F1F71197C9F7D0
:1000FE000895AC0FBD1F05900D928A95E1F70895F6
:00000001FF
