:0A0000002AC0FECFFDCFFCCFFBCFDE
:10000A00FACFF9CFF8CFF7CFF6CFF5CFF4CFF3CFBA
:10001A00F2CFF1CFF0CFEFCFEECFEDCF1027E8033D
:10002A0064000A00010000100001100001004E7572
:10003A006D6265723D2564004E756D6265723D3074
:10004A00000080C0020060014C000000F894EE2716
:10005A00ECBBF1E0FBBFEBBFE5BF8DE0A2E0BB2745
:10006A00ED938A95E9F780E094E0A0E6ED93019795
:10007A00E9F7EEE4F0E085919591009761F0A5919A
:10008A00B59105901590BF01F00105900D92019769
:10009A00E1F7FB01F0CFEFE5EDBFE4E0EEBFC0E62C
:1000AA00D1E000C02A97E0E0E7BBEFEFE8BBA0E1B0
:1000BA0031D2DBD1E6B3E0951E2F1030A9F0D5D1AD
:1000CA00E0E0EA93A0E0C3D1FE0167D2E8E3F0E002
:1000DA0064D2E12FFF2766277727B7D284E053D16E
:1000EA002896DE01E7D104C0C0D1A2E4B0E0F0D185
:1000FA00A4E6B0E090D2DECFFFCF52D2AFD253D235
:10010A0012969BD23097F1F04ED250D28F0130978F
:10011A0061F00230E0E01E0770F0F80131978F01BC
:10012A00AA81BB811496ED93FC933DD2129641D2DB
:10013A003197AC81A08337D280D2FF2312F033D219
:10014A0038D205C030D2EFEFFFEFED93FC938DD29A
:10015A002596089525D226977DD210E0AC85BD85D7
:10016A00E0E0F0E0ED93FC93EA89FB893196EA8BB3
:10017A00FB8B3197E4912E2FE03009F4FEC0E12F7A
:10018A00E03031F4253211F411E001C018D2F4C084
:10019A00E130A1F4253211F412D2EDC012E040E0B0
:1001AA0000E02D3211F401E0E7C02B3211F44BE2EA
:1001BA00E3C0203211F440E2DFC002C0E23039F479
:1001CA0050E013E0203311F40068D6C003C0E330D6
:1001DA0009F0D2C0203310F02A3308F007C0AAE091
:1001EA005A9F502DE22FE0535E0FC6C0E22FE3362E
:1001FA0039F4ECD1EED1EAD1A481AA93EED1BBC0F5
:10020A00E33731F4F0D1F1D1F3D1B0D11E2F08C0C8
:10021A00E03751F4E8D1E9D1EBD1B3D11E2F086010
:10022A0002600F7730E02EC0E43611F0E93611F49F
:10023A00046002C0E53729F4E6E2F0E0DED115E019
:10024A000BC0E83511F4086003C0E83709F093C021
:10025A00E0E3F0E0D2D114E002FF11C0C4D1C5D16D
:10026A00CFD1AB85AA232AF4EA85FB85E2D1C8D18E
:10027A004DE2403011F01F5F01C00B7F03C0B3D1C4
:10028A00B4D1BED100FD10C0151770F407FF08C025
:10029A0002FF04C00B7F242F115001C020E301C0CC
:1002AA0020E28DD15150F0CF312F01FF15C03030EF
:1002BA0091F003FF05C0EE81FF8125919ED105C013
:1002CA00AE81BF812D91AE83BF8379D1503009F0C1
:1002DA0051503150ECCF46C020E3EE81FF81B1D1BD
:1002EA00E887F987EE81FF81329687D1E885F9851B
:1002FA00AA85BB85AE17BF0748F02F5FA885B985C9
:10030A00EA85FB85EA1BFB0B7BD1F0CF2A3328F069
:10031A0003FF02C0295F01C0295D04FD19C0213312
:10032A0020F4A885B985119709F409C0531710F06C
:10033A0000FF01C011C020E207FF0AC020E30061EC
:10034A0002FF06C00B7F4A9348D1503009F0515042
:10035A0036D1503009F051503150A885B9851297DD
:10036A0008F0BACF00FF07C0503029F05150E0E240
:10037A00EA9333D1F9CF10E0F7CEAC85BD855DD1D4
:10038A0070D164960895FF92F82E269765D13BD1D5
:10039A00309719F4EFEFFFEF1CC0DE01169645D136
:1003AA008D0131D12AD1E0E0E887E987DE011A968A
:1003BA003CD143D1F2D01A930A93E2E8F0E0EDD0AF
:1003CA00DE011A96C7DE9F01AE81BF81E0E0EC93A1
:1003DA00F90149D12A96FF900895FFE0FA95F1F7BD
:1003EA000895AAB3AF70AABBD99AD898F6DFDA9A59
:1003FA00F4DFA9B3DA98F1DFDA9AEFDFDA98A7FD2A
:10040A00F5CF0895A07FAB2BABBBDA9AE6DFDA987B
:10041A00E4DF0895AA93D998AAB3A76FAABBBBB37E
:10042A00BF70A881EFDFA881A295ECDFD99A9CC0A2
:10043A00DA9AD3DFE9B3DA98D0DFE07F0895CDDF27
:10044A00F7DFAE2FF5DFD998E295EA2B0895AA9344
:10045A00C8DFE881F0E0E05AFE4FE081A981AE0FE3
:10046A00D9DF5980488022960895BBDFA2E0D2DF07
:10047A00B8DFACE0CFDFB5DFA1E0CCDFE0E04E2EA5
:10048A005E2E0895AA93EF93FF93A8816894AA30E9
:10049A0019F0E894571430F04394E0E0EA93A42D5D
:1004AA00D6DF2EF053949DDFD89AA881B3DFFF914F
:1004BA00EF915AC075D01A93A981BA81ED91A98397
:1004CA00BA831E2FE03019F0A12FDCDFF5CF0FC061
:1004DA0067D01A93E981FA813196E983FA833197D1
:1004EA00E4911E2FE03019F0A12FCCDFF3CF188151
:1004FA0023960895AA27BB271197F1F70895AA937F
:10050A00D998AAB3A76FAABBBBB3BF70A8817ADF79
:10051A00D99A2AC0AA93DA98D8987880E881E058BC
:10052A00E0936201E881E054E093630171D070D0F6
:10053A006FD0E0DFA0E2E3DFDDDFA8E26BDFDADF26
:10054A00A4E068DFD7DFA5E865DFD4DFAAB3AF7020
:10055A00AABBD99A74DFE53011F0E0E005C041DFAB
:10056A00A6E058DF82DFE1E02196089519D0A9912B
:10057A00B991EE27FF276D91662311F03196FBCFD3
:10058A0008950ED0AA27BB27E991F991059000207A
:10059A0011F01196FBCFFD010895FA93EA9308959D
:1005AA00BA93AA930895AA81BB810895149645D057
:1005BA000895ED91FD913196FE93EE9308952A9355
:1005CA00AD85BE85EF85F88909950895E889F98989
:1005DA0008953497E88BF98B0895AD85BE85EF852C
:1005EA00F88909950895F2DFF4CFA889B989DECF91
:1005FA00EE83FF83AE81BF810895EE83FF83089562
:10060A00EA87FB870895DE011C960FD016D008955D
:10061A0071DFA0E374CF109639F0A89580ED97E0CA
:10062A000197F1F71197C9F708950024AF0DB01D8E
:10063A000895F195E195F0400895ED91FC91119797
:10064A0008950590F491E02D08957A936A93FA93A8
:10065A00EA9308955A934A933A932A931A930A93D8
:10066A0008955D814C813B812A8119810881089511
:00000001FF
