:100000003FC06AC080C0FCCFFBCFFACFF9CFF8CF9A
:10001000F7CFF6CFF5CFF4CFF3CFF2CFF1CFF0CFCC
:10002000EFCFEECFEDCF1027E80364000A00010008
:10003000001000011000010000000000000000009E
:100040000001596F7572204E4F2E20253033640009
:10005000414F443A253033642020523A25303364EE
:10006000004E6F2E202530336420746F20256400ED
:1000700080C00A0004003800020080017000000007
:10008000F894EE27ECBBF1E0FBBFEBBFE5BF8DE0E2
:10009000A2E0BB27ED938A95E9F780E094E0A0E623
:1000A000ED930197E9F7E2E7F0E0859195910097EC
:1000B00061F0A591B59105901590BF01F0010590F3
:1000C0000D920197E1F7FB01F0CFEFE5EDBFE4E022
:1000D000EEBFC0E6D1E041C099D2D201A619B7095E
:1000E0001DD360F4F30131963F013197F40131974C
:1000F0004F013196A4E698D267D05F01E1E0DE2E91
:10010000EBB7E0641BC082D2F20131962F01F401FB
:1001100031964F0192D08AD28CD2E2E4F0E090D2B4
:1001200092D284E032D22896A0E7B1E0AED0E1E0EE
:10013000DE2EA8EEB3E0D3D2EBB7E068EBBFE991D7
:10014000EFBFF991E991B991A9919991899179912B
:100150006991F990199009901895E0E0E1BBEFEFF3
:10016000E2BBE0E0E4BBEFEFE5BBE0ECEBBFEAE0D5
:10017000E5BFA0E19AD061D07894DD2019F15DD07F
:1001800055D2A0E04BD0E0E6F1E05AD2E0E5F0E055
:1001900057D259D2F4015CD288E0F7D12C96A0E670
:1001A000B1E073D043D245D2E1E6F0E049D2F301A9
:1001B0004FD2F5014DD288E0E8D12C96A0E7B1E00E
:1001C00064D0DD24DACFFFCF989903C0E1E0F0E0FE
:1001D0000895999903C0E2E0F0E008959A9903C068
:1001E000E3E0F0E008950895AA93E8B3EF70AE2F2E
:1001F000E881E07FEA2BE8BB2FD2C29A2DD2C298C9
:100200002BD27BC0AA93A881EFDFE881E295E88337
:10021000A881EADF85E88A95F1F76FC0AA93E881A3
:10022000F0E0E058FE4FE081A981AE0FEBDFC9801E
:10023000E881E093840122960895A2E0E3DFA3E041
:10024000F3D1ACE0DFDFA1E0DDDFA3E0EDD1E0E062
:10025000E0938401CE2E0895AA93A881AA3021F0BC
:10026000E0918501CE1658F0E1D1A0918401AF5FF5
:10027000A0938401D3DFA881AA3009F43EC0C394BF
:10028000C09AA881BFDFC09838C0EAD11A93A9816B
:10029000BA81ED91A983BA831E2FE03019F0A12F06
:1002A000DBDFF5CF188123960895AA93E7B3E06FBB
:1002B000E7BBBA9AB89AB99AC298C098C198E8812F
:1002C000E0938501E058E0938201E881E054E093F7
:1002D0008301A4E1A9D1C7D1C6D1C5D1A0E284DFF1
:1002E00088EC90E00197F1F7A8E28CDFA4E08ADFC8
:1002F000A5E888DFA6E086DFA0DF21960895B0D1CB
:1003000015D2B8D11296FDD13097F1F0B3D1B5D155
:100310008F01309761F00230E0E01E0770F0F801C5
:1003200031978F01AA81BB811496ED93FC93A2D1E2
:100330001296A6D13197AC81A0839CD1E2D1FF2344
:1003400012F098D19DD105C095D1EFEFFFEFED935D
:10035000FC93F3D12596089583D12697E3D110E03D
:10036000AC85BD85E0E0F0E0ED93FC93EA89FB8984
:100370003196EA8BFB8B3197E4912E2FE03009F414
:10038000FEC0E12FE03031F4253211F411E001C05C
:100390007DD1F4C0E130A1F4253211F477D1EDC064
:1003A00012E040E000E02D3211F401E0E7C02B3212
:1003B00011F44BE2E3C0203211F440E2DFC002C08E
:1003C000E23039F450E013E0203311F40068D6C075
:1003D00003C0E33009F0D2C0203310F02A3308F014
:1003E00007C0AAE05A9F502DE22FE0535E0FC6C00F
:1003F000E22FE33639F451D153D14FD1A481AA93DE
:1004000053D1BBC0E33731F455D156D158D1E7D0E1
:100410001E2F08C0E03751F44DD14ED150D1EAD053
:100420001E2F086002600F7730E02EC0E43611F016
:10043000E93611F4046002C0E53729F4E6E2F0E0A1
:1004400043D115E00BC0E83511F4086003C0E8376C
:1004500009F093C0E0E3F0E037D114E002FF11C0EF
:1004600029D12AD134D1AB85AA232AF4EA85FB8588
:1004700044D12DD14DE2403011F01F5F01C00B7F00
:1004800003C018D119D123D100FD10C0151770F485
:1004900007FF08C002FF04C00B7F242F115001C0CA
:1004A00020E301C020E2F2D05150F0CF312F01FF04
:1004B00015C0303091F003FF05C0EE81FF8125911A
:1004C00003D105C0AE81BF812D91AE83BF83DED045
:1004D000503009F051503150ECCF46C020E3EE814E
:1004E000FF8113D1E887F987EE81FF813296ECD046
:1004F000E885F985AA85BB85AE17BF0748F02F5F51
:10050000A885B985EA85FB85EA1BFB0BE0D0F0CF17
:100510002A3328F003FF02C0295F01C0295D04FDD2
:1005200019C0213320F4A885B985119709F409C0B1
:10053000531710F000FF01C011C020E207FF0AC0EE
:1005400020E3006102FF06C00B7F4A93ADD050301C
:1005500009F051509BD0503009F051503150A885CE
:10056000B985129708F0BACF00FF07C0503029F0C4
:100570005150E0E2EA9398D0F9CF10E0F7CEAC8585
:10058000BD85BFD0D6D064960895FF92F82E2697E9
:10059000CBD0A0D0309719F4EFEFFFEF1CC0DE01F5
:1005A0001696A7D08D0196D08FD0E0E0E887E98736
:1005B000DE011A969ED0A5D043D01A930A93EFE796
:1005C000F1E03ED0DE011A96C7DE9F01AE81BF8109
:1005D000E0E0EC93F901AFD02A96FF90089540D067
:1005E000A991B991EE27FF276D91662311F03196FD
:1005F000FBCF089535D0AA27BB27E991F991059043
:10060000002011F01196FBCFFD0108950A921A9275
:10061000FA926A937A938A939A93AA93BA93EA93F3
:10062000FA93EFB7EA930895B0E059C0E0E0EA9397
:100630000895A1E0F3DDE0E7F1E0FA93EA9308958D
:10064000FA93EA930895F2016627772762D0089516
:10065000662777275ED008958DE08A95F1F7089593
:10066000BA93AA930895A0E3BFDD88EC90E00197C8
:10067000F1F70895AA81BB810895149642D0089598
:10068000ED91FD913196FE93EE9308952A93AD85F9
:10069000BE85EF85F88909950895E889F989089557
:1006A0003497E88BF98B0895AD85BE85EF85F88981
:1006B00009950895F2DFF4CFA889B989DECFEE83DA
:1006C000FF83AE81BF810895EE83FF830895EA879B
:1006D000FB870895DE011C960CD013D00895109668
:1006E00039F0A89580ED97E00197F1F71197C9F7D8
:1006F00008950024AF0DB01D0895F195E195F040E7
:100700000895ED91FC91119708950590F491E02DD5
:1007100008957A936A93FA93EA93089500240A1647
:100720000B0608955A934A933A932A931A930A937D
:1007300008955D814C813B812A811981088108954A
:00000001FF
